:040000006F00C07F4E
:1000040000000000000000008606000088060000D2
:1000140000000000FA0700000000000000000000DB
:10002400FA070000FA0700000000000000000000CA
:100034000C07000000000000FA07000000000000A8
:10004400FA070000FA070000FA0700008A06000019
:10005400FA070000FA070000FA070000FA07000098
:10006400FA070000FA070000FA070000FA07000088
:10007400FA070000FA070000FA070000FA07000078
:10008400FA070000FA070000FA070000FA07000068
:10009400FA070000FA070000FA070000FA07000058
:1000A400FA070000FA070000FA070000FA07000048
:1000B400FA070000FA070000FA070000FA07000038
:1000C400FA070000FA070000FA070000FA07000028
:1000D400FA070000FA070000FA070000FA07000018
:1000E400FA070000FA070000FA070000FA07000008
:0C00F400FA070000FA070000FA070000FD
:10010000397101436EC619A0397141536AC866CA74
:1001100062CC5ECE19A0397101535AD056D252D456
:100120004ED64AD826DA22DC06DE330161408282CE
:1001300041114AC026C222C406C68282B24D410184
:10014000024D924C224CB24B4101024B924A224A40
:10015000B2494101024992442244B24041018280A5
:1001600081461D43BD485C211841637EF302E117BF
:10017000C207C183032E47008A073398F80013484B
:10018000F8FF3378C8012322070103284700B3177B
:10019000F600B3E707015CC3850693F6F60F210569
:1001A000E393D5FC8280032E07008A073398F8007A
:1001B0001348F8FF3378C8012320070103280700FC
:1001C000B317F600B3E707011CC3F9B78147054829
:1001D000144158218507904A3317E80093F7F70F29
:1001E000518F98CA2105E395B7FE8280EFF25FF444
:1001F000292E03C6418293878181A9451376F60F84
:1002000090A33355B602138741821433382393F6F3
:10021000F60FB4B31377F70FF8A33376B60288B3AB
:10022000B0A333D6B602B3F6B602D0A3D4B3B35656
:10023000B7023377B702F4B398A729BFEFF25FEFA5
:10024000056511469545130585B8193F05641305E5
:1002500004BB9545A53F0946130504BB95450937E1
:100260000564130584B591459537094691451305F5
:1002700084B5FD350D472384E180E9BDEFF25FEBE6
:1002800085649145138584B59137056491451305BF
:1002900004BB2D3F03C681808D47A68505061376D6
:1002A000F60FA2861387818063E3C71010A313851E
:1002B00081811C312821138681819207C98F0823EF
:1002C00005671307C7B493F7F70F1303C700138E1F
:1002D00006BB854E034807006312A80203481700B7
:1002E00013FF17000E08729883280800034848007F
:1002F00033980E0163000F0C23AA080109078583B8
:10030000E31AE3FC5C225832138E06BB9207D98FA6
:100310000567130787B793F7F70F1303E700854EB9
:10032000034807006312A8020348170013FF1700D1
:100330000E087298832808000348480033980E017D
:10034000630D0F0623AA080109078583E31A67FCDA
:100350007C321826938606BB9207D98F0567130750
:1003600087BD93F7F70F9308E70005431023631049
:10037000A602103313FE17000E0636960328060059
:1003800050223316C300630D0E02232AC80009074A
:100390008583E31D17FD13173500938785B5BA973D
:1003A000D42398438547B397D7005CCB65B323002C
:1003B0000700F5BD23A8080191B723A8080169B774
:1003C0002328C800E9B79377350099EF1307400653
:1003D0003377E502854719E7930700193375F5026E
:1003E000933715003E8582808147EDBF1308E58471
:1003F0004208135808019308100863EF080BEFF246
:100400003FD0373CE101B78CE2013E8B3A84B68A9B
:100410003289AE89AA8B8144130A207B130C0C38D5
:10042000938C0C5063914B07FD19856C556C014AF8
:1004300093F9F90F938C8CBE130C0C18854D131D7A
:100440000A01135D0D01636B3D051307C00385664B
:100450003304E402938606E15566130606187D19F7
:10046000854537050018B38ADA025A943309C90260
:100470005694E92105453D294A9426942285E12395
:10048000212D014565B952853D3F19C5E694050A00
:10049000420A135A0A0179B7E294D5BFB3874C01D7
:1004A0009C235E85B3878703BE94313F01C56313E8
:1004B000BD01E294050A61B7054582801307400635
:1004C000B377E5023355E5024D471375F50F6374B5
:1004D000A7009387470613D527003E951D47337520
:1004E000E5020567130747BF2E970347F7FF8D8B7C
:1004F0003A962A9699E7894763E5B7007D16420642
:1005000041821D453375A6028280EFF2FFBF55641C
:10051000F12913040418335485029387A1809A2388
:10052000AA846304870682A31309207B9309C0165B
:10053000130AD01663F189024A857135050941C94C
:1005400063084401130424E9420913590901DDB782
:1005500042091359090113874182856A2312270131
:100560008149138941826D4B938A8ABE854B714CB8
:10057000138A190063608B06137AFA0F05042303AC
:1005800049011374F40FA3038900D56793870718F3
:10059000B3F4F4028567938707E11384418233D76C
:1005A000F402B3F4F4021377F70F18A01307C00393
:1005B000B3D7E402B3F4E40293F7F70F1CB024A01E
:1005C0004A206C207030DD3D08A4014595BE13041F
:1005D00034E99DBF03554900FD3319C9639A790178
:1005E000E30C84F90D1493190A0193D9090149B751
:1005F000D69983C70900E361F4F81D8CEDB7EFF2DB
:100600003FB3854537050018152E05456524952C03
:100610000545652C01449304A00F13051004B12E69
:1006200019E963149400054535B605045145137462
:10063000F40FCD21DDB79307A00F0545E306F4FEC7
:10064000130500107D2405455D2CB921B129854590
:100650000545992E9121B52621657D1509292D295C
:10066000930770031307A003B5462146A945130558
:10067000807EAD3B8526A9659385151A1145112C01
:100680006935014555B701A001A0EFF27FAA2921E4
:100690001545B92111217DBCB707002083A70701AB
:1006A0001307401F8146B3D7E70201471386F7FFC0
:1006B000B7F700E090CBD4CB814694C7D8C73D476D
:1006C00098C323A207000567B7E700E023A0E7105F
:1006D0008280EFF2FFA50545D92A79203921854589
:1006E0003145352C293F993E37F400E07537832793
:1006F00004D1DD9B2328F4D0730050109387C18070
:10070000982375D723800700D534D5B7853E8D470C
:100710006315F50005472386E180B7F700E023A2C3
:10072000070073002030B71702409843B706FFF068
:100730001367170098C3D843758FD8C39843B7067B
:10074000F7FEFD16758F98C39843B706FCFFFD169C
:10075000758F98C3D843B70601FFFD16758FD8C3B0
:1007600037079F0098C78280B7160240DC423707E0
:1007700000201146B18B130707016385C70021468E
:100780006388C702B7177A00938707201CC3B7177F
:100790000240DC43918393F6F700B707002093876C
:1007A0000700B69794231C43B3D7D7001CC382809D
:1007B000DC42D4424166C983BD8BF18E8907454630
:1007C0006393C700C94781EEB746024083A60680FF
:1007D000C18A89CEB7167A009386062021A8B7165B
:1007E0000240D4421396E600E35606FEB7163D00DB
:1007F00093860690B387D70251BF01A097010020CE
:1008000093814101172100201301C1FF170500004A
:100810001305453F97F5FF1F9385C57E138681809D
:1008200063FAC5008322050023A055001105910538
:10083000E3EAC5FE13858180938501836377B50064
:10084000232005001105E36DB5FEFD42739002BC47
:100850008D4273904280930280087390023097F229
:10086000FFFF9382627A93E2320073905230EFF08E
:100870009FEB97020000938202E67390123473009C
:100880002030EFF2FF8A0545C9280145F9206FF0B5
:100890007F8C4111B777004002C6938707C03EC6E0
:1008A000B2473E952AC6B2478CC34101828023A835
:1008B000A1808280377700401C4309C593E7071069
:1008C0001CC3828093F7F7EFE5BFB7170240238080
:1008D00007022380070205476306E5001147630608
:1008E000E50082802380A702828015472380E702EB
:1008F0008280371702401C535D8D08D3828001C966
:10090000371702401C53A166D58F1CD38280B716BF
:1009100002409C5261777D17F98F9CD2828099C5E5
:10092000371702401C4F5D8D08CF8280B7170240F9
:10093000984F1345F5FF798D88CF828099C5371779
:1009400002405C4F5D8D48CF8280B7170240D84F80
:100950001345F5FF798DC8CF828001C93717024052
:100960001C53C166D58F1CD38280B71602409C529F
:1009700041777D17F98F9CD28280935755000547A8
:100980006399E700B71702409C4333D5A700058958
:10099000828009476396E700B71702409C53F5B77A
:1009A000B7170240DC53D5B7B737004003D70780ED
:1009B00089C5598D2390A78082801345F5FF798DD5
:1009C000D5BFB737004003D747801367070123928D
:1009D000E78082803737004083574780C207C18352
:1009E000BD9BC207C1832312F78082803736004047
:1009F000835686810357868142074183E31AD7FED7
:100A0000373600408356C6818357C681C207C183EB
:100A1000E39AD7FEB735004003D6858103D585819B
:100A200042054181E31AC5FE630CA700B7360040BA
:100A300003D7C68183D7C681C207C183E39AE7FE85
:100A400042055D8D8280EFF2AFEE41112AC6953FDF
:100A50003245B7370040135705014205239CE78014
:100A60004181239EA780BD3741016FF0AFEEEFF2C9
:100A70002FEC41112AC6B1373245B7370040135722
:100A800005013D8B42052394E78041812396A78091
:100A9000913741016FF00FEC3737004083574780A3
:100AA00093F70702E5DF828037370040835747809E
:100AB000C207C183DD9BC207C1832312F78037378A
:100AC000004083574780A18BEDDF8280B73700401D
:100AD00003D747801345F5FF798D2392A780828045
:100AE000EFF20FE5E5376FF0EFE6B707002083A7D9
:100AF000070137177A0013070720B3D7E70293F7E8
:100B0000F70F238BF1801307803EB387E702239A08
:100B1000F1808280B7F700E0D8438146799BD8C343
:100B200003D741813306A70290CBD4CB98431367F8
:100B3000070198C398431367170298C3D843058BDE
:100B400075DF9843799B98C3828000000000010004
:100B50000200030103000303000C01400500000034
:100B6000000C014004000000000C014007000000E0
:100B7000000C014006000000000201020202030214
:100B80000001010102010000000C0140030000000F
:100B9000000C01400B000000000C014001000000AF
:100BA00000080140070000000008014009000000A3
:100BB000000C014003000000000C01400A0000008E
:100BC000000C014000000000000801400600000089
:100BD000000801400A0000000004010402040304AC
:100BE00000030103020300001F1C1F1E1F1E1F1F06
:100BF0001E1F1E1F00030306010406020500030555
:100C000000000000000000000102030406070809BC
:080C100000127A000000000050
:00000001FF
